:100000000C9464000C946D020C949A020C948C0075
:100010000C948C000C948C000C948C000C948C0030
:100020000C948C000C948C000C948C000C948C0020
:100030000C948C000C948C000C948C000C948C0010
:100040000C94C7020C948C000C949E040C94E10454
:100050000C948C000C948C000C948C000C948C00F0
:100060000C948C000C948C0000000007000201002E
:100070000003040600000000000000000102040864
:100080001020408001020408102001020408102002
:10009000040404040404040402020202020203032E
:1000A00003030303000000002300260029000000D2
:1000B0000000250028002B0000000000240027007D
:1000C0002A0030029D054B0211241FBECFEFD8E05D
:1000D000DEBFCDBF11E0A0E0B1E0EEEEF0E202C085
:1000E00005900D92AE35B107D9F712E0AEE5B1E05B
:1000F00001C01D92A436B107E1F710E0C6ECD0E0D4
:1001000004C02297FE010E946610C23CD107C9F7C5
:100110000E94F3050C94D40A0C940000FC01808525
:1001200091850C94450ACF93DF93EC014E815F815A
:100130006FEF70E0888599850E94E00A1982188225
:100140001B821A821D821C82DF91CF910895CF936A
:10015000DF93EC01CB017F836E830E94AD09998709
:100160008887CE01DF91CF910C9493000F931F935A
:10017000CF93DF93EC018B0181E090E09D838C8332
:10018000FB01608571854E815F81888599850E941C
:10019000D70AF80180819181998388838281938134
:1001A0009B838A83DF91CF911F910F910895FC016A
:1001B000A085B18580819181A80FB91F8C9166239C
:1001C00019F0880F816003C090E0880F991F8C930D
:1001D00082819381019693838283089774F0808152
:1001E00091810196918380831382128226813781C7
:1001F0008217930714F0318320830895FC01208136
:10020000318143E0220F331F4A95E1F782819381C8
:10021000820F931F0895FC01848195810895DC016C
:100220001896ED91FC911997E60FF71F80810895BC
:100230000F931F93809108010E94DD03892B09F41D
:1002400042C00E941D0300915E0110915F01209148
:10025000600130916101601B710B820B930B613760
:1002600021E1720721E08207910528F082E691E002
:100270000E94930028C08B019C0101541F41210959
:1002800031090F3C17402105310580F38B019C019A
:1002900009501740210931090B3211402105310560
:1002A00010F460E00CC0DC01CB01895D9E40A10927
:1002B000B1098B329140A105B105C0F661E082E63B
:1002C00091E00E94D7000E941D0360935E0170932D
:1002D0005F01809360019093610182E691E00E944A
:1002E000FE00859741F462E671E08CE691E01F9193
:1002F0000F910C94B6001F910F91089582E691E042
:100300000E948E008CE691E00E948E0086E791E0CC
:100310000C94B20861E0809106010E94A40360E0A1
:10032000809108010E94A40340E052EC61E070E07B
:1003300084E891E00E941C0581E020910801309141
:1003400009012330310509F080E041E050E068E127
:1003500071E00C944D02CF93DF938CE691E00E9404
:100360000B01892B09F479C060E070E08CE691E024
:100370000E940F01882309F470C064E070E08CE6ED
:1003800091E00E940F01883F09F067C062E070E0D1
:100390008CE691E00E940F01C82F63E070E08CE6CC
:1003A00091E00E940F0182958F7090E1C99FE0015A
:1003B0001124C82B62E070E08CE691E00E940F01EE
:1003C00087FDD06F86E791E00E94B308BE018827C1
:1003D00077FD8095982F0E940D0C20E030E040E2E0
:1003E00051E40E94720B9B01AC016AE071E086E768
:1003F00091E00E94ED0861E070E08CE691E00E94DF
:100400000F01482F50E066E171E086E791E00E941D
:100410000109409174015091750125E030E06FE1D0
:1004200071E086E791E00E940F090E94110328EE17
:1004300033E040E050E00E94A00F65E271E086E703
:1004400091E00E946B0986E791E00E94BC088CE66F
:1004500091E0DF91CF910C949300DF91CF910895BB
:1004600086E791E00E94B10868E070E08CE691E0D8
:100470000E94A70068E070E082E691E00E94A70079
:100480000E941D0360935E0170935F018093600181
:100490009093610108950C947E018230E8F4E82F76
:1004A000F0E0EE0FFF1FE958FE4F7183608381304B
:1004B00041F0809169008C7F842B80936900E89AD9
:1004C000089580916900440F551F440F551F837F85
:1004D000842B80936900E99A08951F920F920FB6BA
:1004E0000F9211242F933F934F935F936F937F93BA
:1004F0008F939F93AF93BF93EF93FF938091770177
:1005000090917801892B29F0E0917701F0917801A1
:100510000995FF91EF91BF91AF919F918F917F913D
:100520006F915F914F913F912F910F900FBE0F9060
:100530001F9018951F920F920FB60F9211242F93B0
:100540003F934F935F936F937F938F939F93AF935B
:10055000BF93EF93FF938091790190917A01892B5A
:1005600029F0E0917901F0917A010995FF91EF91DD
:10057000BF91AF919F918F917F916F915F914F91BB
:100580003F912F910F900FBE0F901F9018951F92C3
:100590000F920FB60F9211242F933F938F939F9337
:1005A000AF93BF9380917C0190917D01A0917E01DA
:1005B000B0917F0130917B0123E0230F2D3720F490
:1005C0000196A11DB11D05C026E8230F0296A11DAD
:1005D000B11D20937B0180937C0190937D01A093BA
:1005E0007E01B0937F018091800190918101A09163
:1005F0008201B09183010196A11DB11D80938001FC
:1006000090938101A0938201B0938301BF91AF9138
:100610009F918F913F912F910F900FBE0F901F9040
:1006200018952FB7F89460917C0170917D018091AD
:100630007E0190917F012FBF08953FB7F89480917C
:10064000800190918101A0918201B091830126B532
:10065000A89B05C02F3F19F00196A11DB11D3FBFFA
:100660006627782F892F9A2F620F711D811D911D8A
:1006700042E0660F771F881F991F4A95D1F70895AA
:10068000789484B5826084BD84B5816084BD85B56D
:10069000826085BD85B5816085BDEEE6F0E0808134
:1006A00081608083E1E8F0E0108280818260808355
:1006B000808181608083E0E8F0E0808181608083D8
:1006C000E1EBF0E0808184608083E0EBF0E080810A
:1006D00081608083EAE7F0E08081846080838081AC
:1006E0008260808380818160808380818068808354
:1006F0001092C1000895833081F028F4813099F080
:100700008230A1F008958630A9F08730B9F08430A6
:10071000D1F4809180008F7D03C0809180008F771D
:1007200080938000089584B58F7702C084B58F7D53
:1007300084BD08958091B0008F7703C08091B00090
:100740008F7D8093B0000895CF93DF9390E0FC01FC
:10075000E458FF4F2491FC01E057FF4F8491882318
:1007600049F190E0880F991FFC01E854FF4FA591D3
:10077000B49182559F4FFC01C591D4919FB76111EF
:1007800008C0F8948C91209582238C9388818223D1
:100790000AC0623051F4F8948C91322F3095832343
:1007A0008C938881822B888304C0F8948C91822B4F
:1007B0008C939FBFDF91CF910895CF93DF93282F24
:1007C00030E0F901E859FF4F8491F901E458FF4FF7
:1007D000D491F901E057FF4FC491CC2391F08111DE
:1007E0000E947B03EC2FF0E0EE0FFF1FEC55FF4F54
:1007F000A591B4912C912D2381E090E021F480E02B
:1008000002C080E090E0DF91CF910895FC01248543
:100810003585F901E05CFF4F80819181F901EE5B44
:10082000FF4F20813181821B930B8F73992708958D
:10083000FC0184859585FC01E05CFF4F408151817E
:10084000FC01EE5BFF4F208131814217530741F0DD
:100850000190F081E02DE80FF91F808190E008956C
:100860008FEF9FEF0895FC0184859585FC01E05C86
:10087000FF4F40815181FC01EE5BFF4F20813181B0
:100880004217530779F0A081B181A80FB91F8C914D
:10089000208131812F5F3F4F2F7333273183208396
:1008A00090E008958FEF9FEF0895FC0181A18823C8
:1008B00029F0A489B5898C9186FFFBCF11A20895F8
:1008C000CF93DF93FC0126853785D901A05CBF4F0C
:1008D0008D919C91119701968F739927E901CE5BB9
:1008E000DF4F4881598184179507D9F30D90BC914A
:1008F000A02DA20FB31F6C93A685B785A05CBF4F38
:1009000011969C938E93A689B7892C9181E090E0F3
:10091000078C02C0880F991F0A94E2F7282B2C93AA
:1009200081E081A30488F589E02D80818064808343
:1009300081E090E0DF91CF91089508951F920F928A
:100940000FB60F9211242F933F934F938F939F9342
:10095000EF93FF938091C00082FD1CC04091C600C0
:1009600080912A0290912B0201968F7399272091F2
:100970002C0230912D028217930771F0E0912A0228
:10098000F0912B02E651FE4F408390932B0280930F
:100990002A0202C08091C600FF91EF919F918F9132
:1009A0004F913F912F910F900FBE0F901F90189570
:1009B00084E891E00E940604892B11F00C949D04B8
:1009C00008951F920F920FB60F9211242F933F9309
:1009D0008F939F93EF93FF932091E6013091E7016E
:1009E0008091E8019091E9012817390731F480914D
:1009F000C1008F7D8093C10014C0E091E801F091A7
:100A0000E901EA55FE4F20818091E8019091E901CA
:100A100001968F7399279093E9018093E8012093C1
:100A2000C600FF91EF919F918F913F912F910F9071
:100A30000FBE0F901F901895CF92DF92EF92FF920A
:100A4000CF93DF93EC016A017B01411581EE5807DA
:100A500061057105F9F0EC89FD8981E090E008A05D
:100A600002C0880F991F0A94E2F7808360E079E062
:100A70008DE390E0A70196010E94A00F215031095B
:100A8000410951095695479537952795211580E1DC
:100A9000380798F0EC89FD89108260E874E88EE1EF
:100AA00090E0A70196010E94A00F21503109410951
:100AB00051095695479537952795E889F9893083E7
:100AC000EA89FB89208319A2EE89FF89408181E0B0
:100AD00090E09C010C8C02C0220F331F0A94E2F7B5
:100AE000422B4083EE89FF8940819C010D8C02C01E
:100AF000220F331F0A94E2F7422B4083EE89FF89CD
:100B000040819C010E8C02C0220F331F0A94E2F731
:100B1000422B4083EE89FF8920810F8C02C0880F11
:100B2000991F0A94E2F7809582238083DF91CF9109
:100B3000FF90EF90DF90CF90089510928701109270
:100B4000860188EE93E0A0E0B0E080938801909366
:100B50008901A0938A01B0938B018EE291E090937A
:100B60008501809384018AEE91E0909391018093B6
:100B7000900186EA91E0909393018093920185EC35
:100B800090E0909395018093940184EC90E0909391
:100B900097018093960180EC90E090939901809367
:100BA000980181EC90E090939B0180939A0182ECF4
:100BB00090E090939D0180939C0186EC90E090934F
:100BC0009F0180939E0184E08093A00183E0809345
:100BD000A10187E08093A20185E08093A30181E0D9
:100BE0008093A40108950E9440030E948A01C8EDE9
:100BF000D4E00E94AB012097E1F30E94D804F9CF22
:100C0000CF92DF92EF92FF920F931F93CF93DF93D8
:100C10006C017A01EB01E60EF71E00E010E0CE1544
:100C2000DF0561F06991D601ED91FC910190F081B1
:100C3000E02DC6010995080F191FF1CFC801DF91FA
:100C4000CF911F910F91FF90EF90DF90CF9008957B
:100C50006115710581F0DB010D900020E9F7AD0110
:100C600041505109461B570BDC01ED91FC9102806C
:100C7000F381E02D099480E090E008950C9428061B
:100C8000DC01ED91FC910190F081E02D09940F932E
:100C90001F93CF93DF93EC016DE00E9440068C011F
:100CA0006AE0CE010E944006800F911FDF91CF9134
:100CB0001F910F9108950F931F93CF93DF93EC0132
:100CC0000E9428068C01CE010E944706800F911FCA
:100CD000DF91CF911F910F9108958F929F92AF92C4
:100CE000BF92CF92DF92EF92FF920F931F93CF9319
:100CF000DF93CDB7DEB7A1970FB6F894DEBF0FBE76
:100D0000CDBF7C01C42EE52FCB01D22E19A221E04C
:100D10002D1510F02AE0D22E8E010F5D1F4F8D2C65
:100D2000912CA12CB12C6C2D7E2FA50194010E9439
:100D3000A00F8C2DD29E80191124015011098A30E8
:100D400014F4805D01C0895CF801808321153105B0
:100D50004105510521F0C22EE32FCA01E4CFB801AD
:100D6000C7010E942806A1960FB6F894DEBF0FBEF9
:100D7000CDBFDF91CF911F910F91FF90EF90DF904A
:100D8000CF90BF90AF909F908F900895CF92DF92B9
:100D9000EF92FF920F931F93CF93DF93EC016A01C1
:100DA0007B012115310579F4E881F9810190F08109
:100DB000E02D642FDF91CF911F910F91FF90EF9065
:100DC000DF90CF9009942A303105E9F477FF1AC0FB
:100DD0006DE20E9440068C0144275527BA014C1948
:100DE0005D096E097F092AE0CE010E946D06800F21
:100DF000911FDF91CF911F910F91FF90EF90DF90A6
:100E0000CF9008952AE0B701A601CE01DF91CF91DE
:100E10001F910F91FF90EF90DF90CF900C946D0693
:100E20009A01AB01662757FD6095762F0C94C60694
:100E30004F925F926F927F928F929F92AF92BF92EA
:100E4000CF92DF92EF92FF920F931F93CF93DF9396
:100E5000EC016A017B01B22E9A01AB01C701B60118
:100E60000E94240D882319F06AE371E027C026014F
:100E70003701E89477F82FEF3FEF4FE75FE7C301C3
:100E8000B2010E94240D81110DC02FEF3FEF4FE7FB
:100E90005FE7C301B2010E946E0B18161CF46EE3EB
:100EA00071E00CC02FEF3FEF4FE75FE4C701B601E1
:100EB0000E94BD0C1816ACF462E471E0CE01DF9123
:100EC000CF911F910F91FF90EF90DF90CF90BF9047
:100ED000AF909F908F907F906F905F904F900C9409
:100EE00028062FEF3FEF4FE75FECC701B6010E94E6
:100EF0006E0B87FDE1CF20E030E0A901C701B6010C
:100F00000E946E0B87FF0AC06DE2CE010E94400670
:100F10008C01F7FAF094F7F8F09402C000E010E0CA
:100F2000A12C60E070E080E09FE3AB1441F020E092
:100F300030E040E251E40E94720BA394F6CF9B0193
:100F4000AC01C701B6010E940A0B6B017C010E9433
:100F5000DF0B2B013C010E940B0C9B01AC01C70174
:100F6000B6010E94090B6B017C012AE0B301A201CA
:100F7000CE010E946D06080F191FBB2039F066E4F0
:100F800071E0CE010E942806080F191F7B2C7720E4
:100F900041F120E030E040E251E4C701B6010E9497
:100FA000C10C6B017C010E94DA0B4B01AA2497FC57
:100FB000A094BA2C2AE030E0B501A401CE010E9431
:100FC000C606080F191FC501B4010E940D0C9B0134
:100FD000AC01C701B6010E94090B6B017C017A9438
:100FE000D6CFC801DF91CF911F910F91FF90EF9065
:100FF000DF90CF90BF90AF909F908F907F906F9039
:101000005F904F9008950C941807009791F0FC01A1
:101010002081222371F001900020E9F73297DC0152
:10102000AE17BF0730F42C9130813D932083319768
:10103000F7CF08952F923F924F925F926F927F92D7
:101040008F929F92AF92BF92CF92DF92EF92FF92D8
:101050000F931F93CF93DF93CDB7DEB728970FB6CB
:10106000F894DEBF0FBECDBF98878F837C836B83E0
:101070001701280139014A01AB0160E070E00E94CC
:10108000E00A80E3EF81F8858083FA83E9832B818E
:101090003C81215031093E832D839101A201B3018E
:1010A000C401A0E00E94581051F18AE0A82EB12C92
:1010B000C12CD12CE12CF12C00E010E09101A20117
:1010C000B301C4010E94C20F205DE981FA8121931E
:1010D000FA83E9839101A201B301C4010E94C40F04
:1010E00019012A013B014C0189819A812F813885A0
:1010F000821B930BED81FE818E179F0774F28F8107
:1011000098850E9405083C014C01FFEF8F1A9F0A49
:10111000F3018081803339F44B815C81B401C301D8
:101120000E94D70AF5CF811103C080E3808311822A
:1011300028960FB6F894DEBF0FBECDBFDF91CF91DA
:101140001F910F91FF90EF90DF90CF90BF90AF90E5
:101150009F908F907F906F905F904F903F902F90D7
:1011600008950895089521E0FC0120836AE471E068
:1011700084E891E00C943E066CE471E084E891E030
:101180000C945B060F931F93CF93DF93EC018B01BD
:101190008881811106C06EE471E084E891E00E94CC
:1011A0003E06188260E571E084E891E00E943E0608
:1011B000B80184E891E00E943E0660E571E084E8B1
:1011C00091E00E943E0662E571E084E891E0DF91E3
:1011D000CF911F910F910C943E06CF92DF92EF9228
:1011E000FF9269017A010E94C20822E030E0B70153
:1011F000A60184E891E0FF90EF90DF90CF900C94EF
:101200000308CF93DF93EA010E94C2084AE050E04E
:10121000BE0184E891E0DF91CF910C9410078F928A
:101220009F92AF92BF92CF92DF92EF92FF920F9375
:101230001F93CF93DF93CDB7DEB72A970FB6F894FD
:10124000DEBF0FBECDBF6A0149010E94C20860E542
:1012500071E084E891E00E943E06760148E5A42E04
:1012600041E0B42E8E010F5F1F4FC7018C199D09FD
:1012700088159905BCF4F70181917F011F928F9326
:10128000BF92AF921F930F930E94E70AB80184E8C0
:1012900091E00E943E060F900F900F900F900F90DC
:1012A0000F90E3CF60E571E084E891E00E943E0694
:1012B0002A960FB6F894DEBF0FBECDBFDF91CF9157
:1012C0001F910F91FF90EF90DF90CF90BF90AF9064
:1012D0009F908F9008956F927F928F929F92AF927E
:1012E000BF92CF92DF92EF92FF920F931F93CF9313
:1012F000DF9300D000D0CDB7DEB729833A834B838C
:101300005C830E94C20829813A814B815C8139014A
:101310004A017301840120E030E040E050E062E3E4
:1013200070E08EE292E00E941A086EE272E084E8B9
:1013300091E00F900F900F900F90DF91CF911F9140
:101340000F91FF90EF90DF90CF90BF90AF909F9064
:101350008F907F906F900C943E06CF93DF938230F6
:10136000910510F482E090E0E0916202F091630256
:1013700020E030E0A0E0B0E0309739F140815181C9
:1013800048175907B8F04817590771F482819381BB
:10139000109729F013969C938E9312972CC09093DC
:1013A00063028093620227C02115310531F0421794
:1013B000530718F0A901DB0101C0EF019A01BD013B
:1013C000DF010280F381E02DD7CF21153105F9F03F
:1013D000281B390B2430310580F48A819B816115EB
:1013E000710521F0FB019383828304C09093630213
:1013F00080936202FE01329644C0FE01E20FF31FA9
:101400008193919322503109398328833AC02091E6
:10141000600230916102232B41F42091020130914E
:10142000030130936102209360022091000130910A
:1014300001012115310541F42DB73EB7409104015A
:1014400050910501241B350BE0916002F09161027F
:10145000E217F307A0F42E1B3F0B2817390778F08B
:10146000AC014E5F5F4F2417350748F04E0F5F1FEA
:1014700050936102409360028193919302C0E0E037
:10148000F0E0CF01DF91CF910895CF93DF930097E4
:1014900009F487C0FC01329713821282C091620264
:1014A000D0916302209781F420813181280F391F68
:1014B00080916002909161028217930779F5F09311
:1014C0006102E09360026DC0DE0120E030E0AE1703
:1014D000BF0750F412964D915C9113979D014115F1
:1014E000510509F1DA01F3CFB383A2834081518121
:1014F000840F951F8A179B0771F48D919C9111970A
:10150000840F951F02969183808312968D919C91F2
:101510001397938382832115310529F4F093630295
:10152000E09362023EC0D9011396FC93EE931297AA
:101530004D915D91A40FB51FEA17FB0779F48081E7
:101540009181840F951F0296D90111969C938E93D9
:101550008281938113969C938E931297E0E0F0E042
:101560008A819B81009719F0FE01EC01F9CFCE0131
:10157000029628813981820F931F20916002309159
:1015800061022817390769F4309729F41092630231
:101590001092620202C013821282D0936102C09341
:1015A0006002DF91CF910895F8940C946A10FB01CA
:1015B000DC0102C001900D9241505040D8F70895CF
:1015C000DC0101C06D9341505040E0F70895AEE05A
:1015D000B0E0EDEEFAE00C942F100D891E8986E044
:1015E0008C831A8309838FEF9FE79E838D83AE01DF
:1015F000475E5F4F6F89788DCE0101960E94280D5E
:10160000EF81F885E00FF11F10822E96E4E00C9434
:101610004B105058BB27AA270ED075C166D130F0A9
:101620006BD120F031F49F3F11F41EF45BC10EF436
:10163000E095E7FB51C1E92F77D180F3BA17620734
:1016400073078407950718F071F49EF58FC10EF4A7
:10165000E0950B2EBA2FA02D0B01B90190010C01C2
:10166000CA01A0011124FF27591B99F0593F50F4DA
:10167000503E68F11A16F040A22F232F342F442732
:10168000585FF3CF469537952795A795F04053952A
:10169000C9F77EF41F16BA0B620B730B840BBAF0FA
:1016A0009150A1F0FF0FBB1F661F771F881FC2F765
:1016B0000EC0BA0F621F731F841F48F48795779579
:1016C0006795B795F7959E3F08F0B3CF9395880F30
:1016D00008F09927EE0F979587950895D9D008F4CB
:1016E00081E008950CD00FC107D140F0FED030F05A
:1016F00021F45F3F19F0F0C0511139C1F3C014D18A
:1017000098F39923C9F35523B1F3951B550BBB27C8
:10171000AA2762177307840738F09F5F5F4F220F75
:10172000331F441FAA1FA9F333D00E2E3AF0E0E86E
:1017300030D091505040E695001CCAF729D0FE2FBA
:1017400027D0660F771F881FBB1F2617370748074C
:10175000AB07B0E809F0BB0B802DBF01FF27935802
:101760005F4F2AF09E3F510568F0B6C000C15F3F51
:10177000ECF3983EDCF3869577956795B795F795EA
:101780009F5FC9F7880F911D9695879597F90895E2
:10179000E1E0660F771F881FBB1F6217730784077E
:1017A000BA0720F0621B730B840BBA0BEE1F88F78D
:1017B000E095089504D06894B111D9C00895BCD0C3
:1017C00088F09F5790F0B92F9927B751A0F0D1F02A
:1017D000660F771F881F991F1AF0BA95C9F712C0B4
:1017E000B13081F0C3D0B1E00895C0C0672F782F29
:1017F0008827B85F39F0B93FCCF386957795679520
:10180000B395D9F73EF490958095709561957F4F8B
:101810008F4F9F4F0895E89409C097FB3EF4909531
:101820008095709561957F4F8F4F9F4F9923A9F0B9
:10183000F92F96E9BB279395F69587957795679548
:10184000B795F111F8CFFAF4BB0F11F460FF1BC08C
:101850006F5F7F4F8F4F9F4F16C0882311F096E91F
:1018600011C0772321F09EE8872F762F05C06623CD
:1018700071F096E8862F70E060E02AF09A95660F86
:10188000771F881FDAF7880F9695879597F908953F
:10189000990F0008550FAA0BE0E8FEEF1616170681
:1018A000E807F907C0F012161306E407F50798F0E9
:1018B000621B730B840B950B39F40A2661F0232B02
:1018C000242B252B21F408950A2609F4A140A6957E
:1018D0008FEF811D811D089597F99F6780E870E063
:1018E00060E008959FEF80EC089500240A94161696
:1018F000170618060906089500240A9412161306FE
:10190000140605060895092E0394000C11F488238B
:1019100052F0BB0F40F4BF2B11F460FF04C06F5FA7
:101920007F4F8F4F9F4F089557FD9058440F551F7D
:1019300059F05F3F71F04795880F97FB991F61F051
:101940009F3F79F087950895121613061406551FC8
:10195000F2CF4695F1DF08C0161617061806991F34
:10196000F1CF86957105610508940895E894BB2729
:1019700066277727CB0197F908958ADF08F48FEF60
:1019800008950BD0C0CFB1DF28F0B6DF18F0952353
:1019900009F0A2CFA7CF1124EACFC6DFA0F3959F0D
:1019A000D1F3950F50E0551F629FF001729FBB2746
:1019B000F00DB11D639FAA27F00DB11DAA1F649FF2
:1019C0006627B00DA11D661F829F2227B00DA11DA5
:1019D000621F739FB00DA11D621F839FA00D611D2B
:1019E000221F749F3327A00D611D231F849F600D4C
:1019F000211D822F762F6A2F11249F5750408AF085
:101A0000E1F088234AF0EE0FFF1FBB1F661F771F10
:101A1000881F91505040A9F79E3F510570F05CCF50
:101A2000A6CF5F3FECF3983EDCF3869577956795FC
:101A3000B795F795E7959F5FC1F7FE2B880F911D2E
:101A40009695879597F9089523DF880B990B08954C
:101A5000ACE0B0E0EEE2FDE00C9421107C016B0103
:101A60008A01FC0117821682838181FFBDC1CE01EC
:101A700001964C01F7019381F60193FD859193FF47
:101A800081916F01882309F4ABC1853239F493FD4C
:101A9000859193FF81916F01853229F4B70190E020
:101AA0000E94100FE7CF512C312C20E02032A0F4FF
:101AB0008B3269F030F4803259F0833269F420615E
:101AC0002CC08D3239F0803339F4216026C0226079
:101AD000246023C0286021C027FD27C030ED380FC7
:101AE0003A3078F426FF06C0FAE05F9E300D1124EC
:101AF000532E13C08AE0389E300D1124332E2062FD
:101B00000CC08E3221F426FD6BC1206406C08C36D9
:101B100011F4206802C0883641F4F60193FD8591E6
:101B200093FF81916F018111C1CF982F9F7D9554B3
:101B3000933028F40C5F1F4FFFE3F9830DC0833609
:101B400031F0833771F0833509F05BC022C0F801B2
:101B5000808189830E5F1F4F44244394512C54018C
:101B600015C03801F2E06F0E711CF801A080B18041
:101B700026FF03C0652D70E002C06FEF7FEFC50147
:101B80002C870E94050F2C0183012C852F77222E94
:101B900017C03801F2E06F0E711CF801A080B1800F
:101BA00026FF03C0652D70E002C06FEF7FEFC50117
:101BB0002C870E94FA0E2C012C852068222E83018E
:101BC00023FC1BC0832D90E048165906B0F4B701E2
:101BD00080E290E00E94100F3A94F4CFF50127FCC8
:101BE000859127FE81915F01B70190E00E94100F5F
:101BF00031103A94F1E04F1A51084114510471F731
:101C0000E5C0843611F0893639F5F80127FF07C0A1
:101C100060817181828193810C5F1F4F08C0608158
:101C20007181882777FD8095982F0E5F1F4F2F7643
:101C3000B22E97FF09C090958095709561957F4F62
:101C40008F4F9F4F2068B22E2AE030E0A4010E94FF
:101C5000420FA82EA81844C0853729F42F7EB22E33
:101C60002AE030E025C0F22FF97FBF2E8F36C1F079
:101C700018F4883579F0B4C0803719F0883721F02E
:101C8000AFC02F2F2061B22EB4FE0DC08B2D84600B
:101C9000B82E09C024FF0AC09F2F9660B92E06C037
:101CA00028E030E005C020E130E002C020E132E071
:101CB000F801B7FE07C060817181828193810C5F5A
:101CC0001F4F06C06081718180E090E00E5F1F4F62
:101CD000A4010E94420FA82EA818FB2DFF77BF2E4B
:101CE000B6FE0BC02B2D2E7FA51450F4B4FE0AC0F7
:101CF000B2FC08C02B2D2E7E05C07A2C2B2D03C0E4
:101D00007A2C01C0752C24FF0DC0FE01EA0DF11DD7
:101D10008081803311F4297E09C022FF06C07394AC
:101D2000739404C0822F867809F0739423FD13C046
:101D300020FF06C05A2C731418F4530C5718732C38
:101D4000731468F4B70180E290E02C870E94100FB2
:101D500073942C85F5CF731410F4371801C0312C0F
:101D600024FF12C0B70180E390E02C870E94100F7F
:101D70002C8522FF17C021FF03C088E590E002C038
:101D800088E790E0B7010CC0822F867859F021FDDA
:101D900002C080E201C08BE227FD8DE2B70190E036
:101DA0000E94100FA51438F4B70180E390E00E9460
:101DB000100F5A94F7CFAA94F401EA0DF11D808117
:101DC000B70190E00E94100FA110F5CF332009F465
:101DD00051CEB70180E290E00E94100F3A94F6CF06
:101DE000F7018681978102C08FEF9FEF2C96E2E189
:101DF0000C943D10FC010590615070400110D8F723
:101E0000809590958E0F9F1F0895FC016150704042
:101E100001900110D8F7809590958E0F9F1F08951F
:101E20000F931F93CF93DF93182F092FEB018B8113
:101E300081FD03C08FEF9FEF20C082FF10C04E8155
:101E40005F812C813D81421753077CF4E881F98141
:101E50009F012F5F3F4F39832883108306C0E88599
:101E6000F985812F0995892B29F72E813F812F5FD5
:101E70003F4F3F832E83812F902FDF91CF911F9172
:101E80000F910895FA01AA27283051F1203181F1EC
:101E9000E8946F936E7F6E5F7F4F8F4F9F4FAF4F72
:101EA000B1E03ED0B4E03CD0670F781F891F9A1F85
:101EB000A11D680F791F8A1F911DA11D6A0F711D39
:101EC000811D911DA11D20D009F468943F912AE045
:101ED000269F11243019305D3193DEF6CF0108952D
:101EE000462F4770405D4193B3E00FD0C9F7F6CF5E
:101EF000462F4F70405D4A3318F0495D31FD405226
:101F0000419302D0A9F7EACFB4E0A69597958795BB
:101F100077956795BA95C9F700976105710508959A
:101F20009B01AC010A2E0694579547953795279546
:101F3000BA95C9F7620F731F841F951FA01D0895DE
:101F4000A1E21A2EAA1BBB1BFD010DC0AA1FBB1FBD
:101F5000EE1FFF1FA217B307E407F50720F0A21B2F
:101F6000B30BE40BF50B661F771F881F991F1A949C
:101F700069F760957095809590959B01AC01BD01C6
:101F8000CF010895689401C0E8948F929F92CF93F7
:101F9000DF930E94D00FDF91CF919F908F90089593
:101FA00088249924F401E401B0E49F93AA279A15A8
:101FB0008B049C04ED05FE05CF05D007A10798F41E
:101FC000AD2FDC2FCF2FFE2FE92D982C892E982FA7
:101FD000872F762F652F542F432F322F2227B8506B
:101FE00031F7BF9127C01B2EBF91BB27220F331F94
:101FF000441F551F661F771F881F991F881C991C37
:10200000EE1FFF1FCC1FDD1FAA1FBB1F8A149B04DE
:10201000EC05FD05CE05DF05A007B10748F08A18DD
:102020009B08EC09FD09CE09DF09A00BB10B21606B
:102030001A94E1F62EF49401AF01BE01CD01000C1B
:1020400008952F923F924F925F926F927F928F925C
:102050009F92AF92BF92CF92DF92EF92FF920F9337
:102060001F93CF93DF93CDB7DEB7CA1BDB0B0FB641
:10207000F894DEBF0FBECDBF09942A8839884888FE
:102080005F846E847D848C849B84AA84B984C88494
:10209000DF80EE80FD800C811B81AA81B981CE0F8B
:1020A000D11D0FB6F894DEBF0FBECDBFED01089570
:1020B0000024A7FD00942A1730054005500560054F
:1020C0007005800590050895EE0FFF1F0590F491AF
:1020D000E02D099410E0C6ECD0E004C0FE010E949F
:0E20E00066102296C83CD107C9F7F894FFCFCE
:1020EE000000640220000D00020074656D706572C0
:1020FE006174757265006465766963654964006430
:10210E00656275670074696D65000000000060040B
:10211E00000606043304180455046E616E00696EE1
:10212E0066006F7666002E0030007B007D002C006E
:0E213E0022003A005B005D0025303278000080
:00000001FF
